{
  "_format": "hh-sol-artifact-1",
  "contractName": "Medical",
  "sourceName": "contracts/Medical.sol",
  "abi": [
    {
      "inputs": [],
      "stateMutability": "nonpayable",
      "type": "constructor"
    },
    {
      "inputs": [
        {
          "internalType": "string",
          "name": "_name",
          "type": "string"
        },
        {
          "internalType": "uint8",
          "name": "_age",
          "type": "uint8"
        },
        {
          "internalType": "enum Medical.Gender",
          "name": "_gender",
          "type": "uint8"
        },
        {
          "internalType": "string",
          "name": "_bloodType",
          "type": "string"
        },
        {
          "internalType": "string",
          "name": "_treatment",
          "type": "string"
        },
        {
          "internalType": "address",
          "name": "_assignedDoctor",
          "type": "address"
        }
      ],
      "name": "addPatient",
      "outputs": [],
      "stateMutability": "nonpayable",
      "type": "function"
    },
    {
      "inputs": [
        {
          "internalType": "address",
          "name": "_doctorAddress",
          "type": "address"
        }
      ],
      "name": "approveDoctor",
      "outputs": [],
      "stateMutability": "nonpayable",
      "type": "function"
    },
    {
      "inputs": [
        {
          "internalType": "uint256",
          "name": "_patientId",
          "type": "uint256"
        }
      ],
      "name": "deletePatient",
      "outputs": [],
      "stateMutability": "nonpayable",
      "type": "function"
    },
    {
      "inputs": [],
      "name": "doctorCount",
      "outputs": [
        {
          "internalType": "uint256",
          "name": "",
          "type": "uint256"
        }
      ],
      "stateMutability": "view",
      "type": "function"
    },
    {
      "inputs": [
        {
          "internalType": "address",
          "name": "",
          "type": "address"
        }
      ],
      "name": "doctors",
      "outputs": [
        {
          "internalType": "uint256",
          "name": "id",
          "type": "uint256"
        },
        {
          "internalType": "string",
          "name": "name",
          "type": "string"
        },
        {
          "internalType": "string",
          "name": "specialization",
          "type": "string"
        },
        {
          "internalType": "address",
          "name": "doctorAddress",
          "type": "address"
        },
        {
          "internalType": "bool",
          "name": "verified",
          "type": "bool"
        }
      ],
      "stateMutability": "view",
      "type": "function"
    },
    {
      "inputs": [],
      "name": "getActivePatients",
      "outputs": [
        {
          "internalType": "uint256[]",
          "name": "",
          "type": "uint256[]"
        }
      ],
      "stateMutability": "view",
      "type": "function"
    },
    {
      "inputs": [],
      "name": "getInactivePatients",
      "outputs": [
        {
          "internalType": "uint256[]",
          "name": "",
          "type": "uint256[]"
        }
      ],
      "stateMutability": "view",
      "type": "function"
    },
    {
      "inputs": [],
      "name": "getPatientsByDoctor",
      "outputs": [
        {
          "internalType": "uint256[]",
          "name": "",
          "type": "uint256[]"
        }
      ],
      "stateMutability": "view",
      "type": "function"
    },
    {
      "inputs": [
        {
          "internalType": "address",
          "name": "",
          "type": "address"
        }
      ],
      "name": "isVerifiedDoctor",
      "outputs": [
        {
          "internalType": "bool",
          "name": "",
          "type": "bool"
        }
      ],
      "stateMutability": "view",
      "type": "function"
    },
    {
      "inputs": [],
      "name": "manager",
      "outputs": [
        {
          "internalType": "address",
          "name": "",
          "type": "address"
        }
      ],
      "stateMutability": "view",
      "type": "function"
    },
    {
      "inputs": [],
      "name": "patientCount",
      "outputs": [
        {
          "internalType": "uint256",
          "name": "",
          "type": "uint256"
        }
      ],
      "stateMutability": "view",
      "type": "function"
    },
    {
      "inputs": [
        {
          "internalType": "uint256",
          "name": "",
          "type": "uint256"
        }
      ],
      "name": "patients",
      "outputs": [
        {
          "internalType": "uint256",
          "name": "id",
          "type": "uint256"
        },
        {
          "internalType": "string",
          "name": "name",
          "type": "string"
        },
        {
          "internalType": "uint8",
          "name": "age",
          "type": "uint8"
        },
        {
          "internalType": "enum Medical.Gender",
          "name": "gender",
          "type": "uint8"
        },
        {
          "internalType": "string",
          "name": "bloodType",
          "type": "string"
        },
        {
          "internalType": "string",
          "name": "treatment",
          "type": "string"
        },
        {
          "internalType": "address",
          "name": "assignedDoctor",
          "type": "address"
        },
        {
          "internalType": "uint256",
          "name": "createdAt",
          "type": "uint256"
        },
        {
          "internalType": "bool",
          "name": "isActive",
          "type": "bool"
        }
      ],
      "stateMutability": "view",
      "type": "function"
    },
    {
      "inputs": [
        {
          "internalType": "string",
          "name": "_name",
          "type": "string"
        },
        {
          "internalType": "string",
          "name": "_specialization",
          "type": "string"
        }
      ],
      "name": "registerDoctor",
      "outputs": [],
      "stateMutability": "nonpayable",
      "type": "function"
    },
    {
      "inputs": [
        {
          "internalType": "uint256",
          "name": "_patientId",
          "type": "uint256"
        },
        {
          "internalType": "string",
          "name": "_newTreatment",
          "type": "string"
        }
      ],
      "name": "updateTreatment",
      "outputs": [],
      "stateMutability": "nonpayable",
      "type": "function"
    }
  ],
  "bytecode": "0x608060405234801561001057600080fd5b50336000806101000a81548173ffffffffffffffffffffffffffffffffffffffff021916908373ffffffffffffffffffffffffffffffffffffffff1602179055506122cb806100606000396000f3fe608060405234801561001057600080fd5b50600436106100ea5760003560e01c806378522bc41161008c57806397524b771161006657806397524b771461023d578063a0303c411461025b578063a9583c2214610279578063c73acbfe146102ad576100ea565b806378522bc4146101cb578063833b46bb146101e957806393119a8314610205576100ea565b8063512c850e116100c8578063512c850e146101595780636160a5c21461017757806367e5748214610193578063764a3522146101af576100ea565b80631bf9d751146100ef57806343cb92521461011f578063481c6a751461013b575b600080fd5b61010960048036038101906101049190611640565b6102cb565b6040516101169190611688565b60405180910390f35b6101396004803603810190610134919061181f565b6102eb565b005b6101436104ad565b604051610150919061188a565b60405180910390f35b6101616104d1565b60405161016e9190611963565b60405180910390f35b610191600480360381019061018c9190611640565b6105b7565b005b6101ad60048036038101906101a89190611985565b6107cd565b005b6101c960048036038101906101c49190611a10565b6109e3565b005b6101d3610d5c565b6040516101e09190611b00565b60405180910390f35b61020360048036038101906101fe9190611b1b565b610d62565b005b61021f600480360381019061021a9190611985565b610f7e565b60405161023499989796959493929190611ca1565b60405180910390f35b6102456111ab565b6040516102529190611963565b60405180910390f35b610263611291565b6040516102709190611b00565b60405180910390f35b610293600480360381019061028e9190611640565b611297565b6040516102a4959493929190611d43565b60405180910390f35b6102b561140a565b6040516102c29190611963565b60405180910390f35b60056020528060005260406000206000915054906101000a900460ff1681565b600560003373ffffffffffffffffffffffffffffffffffffffff1673ffffffffffffffffffffffffffffffffffffffff16815260200190815260200160002060009054906101000a900460ff16610377576040517f08c379a000000000000000000000000000000000000000000000000000000000815260040161036e90611df0565b60405180910390fd5b3373ffffffffffffffffffffffffffffffffffffffff166003600084815260200190815260200160002060050160009054906101000a900473ffffffffffffffffffffffffffffffffffffffff1673ffffffffffffffffffffffffffffffffffffffff161461041b576040517f08c379a000000000000000000000000000000000000000000000000000000000815260040161041290611e5c565b60405180910390fd5b6003600083815260200190815260200160002060070160009054906101000a900460ff1661047e576040517f08c379a000000000000000000000000000000000000000000000000000000000815260040161047590611ec8565b60405180910390fd5b806003600084815260200190815260200160002060040190805190602001906104a892919061152b565b505050565b60008054906101000a900473ffffffffffffffffffffffffffffffffffffffff1681565b606060008054906101000a900473ffffffffffffffffffffffffffffffffffffffff1673ffffffffffffffffffffffffffffffffffffffff163373ffffffffffffffffffffffffffffffffffffffff1614610561576040517f08c379a000000000000000000000000000000000000000000000000000000000815260040161055890611f5a565b60405180910390fd5b60088054806020026020016040519081016040528092919081815260200182805480156105ad57602002820191906000526020600020905b815481526020019060010190808311610599575b5050505050905090565b60008054906101000a900473ffffffffffffffffffffffffffffffffffffffff1673ffffffffffffffffffffffffffffffffffffffff163373ffffffffffffffffffffffffffffffffffffffff1614610645576040517f08c379a000000000000000000000000000000000000000000000000000000000815260040161063c90611f5a565b60405180910390fd5b600073ffffffffffffffffffffffffffffffffffffffff16600460008373ffffffffffffffffffffffffffffffffffffffff1673ffffffffffffffffffffffffffffffffffffffff16815260200190815260200160002060030160009054906101000a900473ffffffffffffffffffffffffffffffffffffffff1673ffffffffffffffffffffffffffffffffffffffff161415610717576040517f08c379a000000000000000000000000000000000000000000000000000000000815260040161070e90611fc6565b60405180910390fd5b6001600560008373ffffffffffffffffffffffffffffffffffffffff1673ffffffffffffffffffffffffffffffffffffffff16815260200190815260200160002060006101000a81548160ff0219169083151502179055506001600460008373ffffffffffffffffffffffffffffffffffffffff1673ffffffffffffffffffffffffffffffffffffffff16815260200190815260200160002060030160146101000a81548160ff02191690831515021790555050565b60008054906101000a900473ffffffffffffffffffffffffffffffffffffffff1673ffffffffffffffffffffffffffffffffffffffff163373ffffffffffffffffffffffffffffffffffffffff161461085b576040517f08c379a000000000000000000000000000000000000000000000000000000000815260040161085290611f5a565b60405180910390fd5b6003600082815260200190815260200160002060070160009054906101000a900460ff166108be576040517f08c379a00000000000000000000000000000000000000000000000000000000081526004016108b590612032565b60405180910390fd5b60006003600083815260200190815260200160002060070160006101000a81548160ff02191690831515021790555060088190806001815401808255809150506001900390600052602060002001600090919091909150556000600780549050905060005b818110156109de5782600782815481106109405761093f612052565b5b906000526020600020015414156109cb57600760018361096091906120b0565b8154811061097157610970612052565b5b9060005260206000200154600782815481106109905761098f612052565b5b906000526020600020018190555060078054806109b0576109af6120e4565b5b600190038181906000526020600020016000905590556109de565b80806109d690612113565b915050610923565b505050565b60008054906101000a900473ffffffffffffffffffffffffffffffffffffffff1673ffffffffffffffffffffffffffffffffffffffff163373ffffffffffffffffffffffffffffffffffffffff1614610a71576040517f08c379a0000000000000000000000000000000000000000000000000000000008152600401610a6890611f5a565b60405180910390fd5b600560008273ffffffffffffffffffffffffffffffffffffffff1673ffffffffffffffffffffffffffffffffffffffff16815260200190815260200160002060009054906101000a900460ff16610afd576040517f08c379a0000000000000000000000000000000000000000000000000000000008152600401610af4906121a8565b60405180910390fd5b60016000815480929190610b1090612113565b919050555060405180610120016040528060015481526020018781526020018660ff168152602001856002811115610b4b57610b4a611c2a565b5b81526020018481526020018381526020018273ffffffffffffffffffffffffffffffffffffffff16815260200142815260200160011515815250600360006001548152602001908152602001600020600082015181600001556020820151816001019080519060200190610bc092919061152b565b5060408201518160020160006101000a81548160ff021916908360ff16021790555060608201518160020160016101000a81548160ff02191690836002811115610c0d57610c0c611c2a565b5b02179055506080820151816003019080519060200190610c2e92919061152b565b5060a0820151816004019080519060200190610c4b92919061152b565b5060c08201518160050160006101000a81548173ffffffffffffffffffffffffffffffffffffffff021916908373ffffffffffffffffffffffffffffffffffffffff16021790555060e082015181600601556101008201518160070160006101000a81548160ff021916908315150217905550905050600660008273ffffffffffffffffffffffffffffffffffffffff1673ffffffffffffffffffffffffffffffffffffffff168152602001908152602001600020600154908060018154018082558091505060019003906000526020600020016000909190919091505560076001549080600181540180825580915050600190039060005260206000200160009091909190915055505050505050565b60025481565b600073ffffffffffffffffffffffffffffffffffffffff16600460003373ffffffffffffffffffffffffffffffffffffffff1673ffffffffffffffffffffffffffffffffffffffff16815260200190815260200160002060030160009054906101000a900473ffffffffffffffffffffffffffffffffffffffff1673ffffffffffffffffffffffffffffffffffffffff1614610e33576040517f08c379a0000000000000000000000000000000000000000000000000000000008152600401610e2a90612214565b60405180910390fd5b60026000815480929190610e4690612113565b91905055506040518060a0016040528060025481526020018381526020018281526020013373ffffffffffffffffffffffffffffffffffffffff16815260200160001515815250600460003373ffffffffffffffffffffffffffffffffffffffff1673ffffffffffffffffffffffffffffffffffffffff168152602001908152602001600020600082015181600001556020820151816001019080519060200190610ef292919061152b565b506040820151816002019080519060200190610f0f92919061152b565b5060608201518160030160006101000a81548173ffffffffffffffffffffffffffffffffffffffff021916908373ffffffffffffffffffffffffffffffffffffffff16021790555060808201518160030160146101000a81548160ff0219169083151502179055509050505050565b6003602052806000526040600020600091509050806000015490806001018054610fa790612263565b80601f0160208091040260200160405190810160405280929190818152602001828054610fd390612263565b80156110205780601f10610ff557610100808354040283529160200191611020565b820191906000526020600020905b81548152906001019060200180831161100357829003601f168201915b5050505050908060020160009054906101000a900460ff16908060020160019054906101000a900460ff169080600301805461105b90612263565b80601f016020809104026020016040519081016040528092919081815260200182805461108790612263565b80156110d45780601f106110a9576101008083540402835291602001916110d4565b820191906000526020600020905b8154815290600101906020018083116110b757829003601f168201915b5050505050908060040180546110e990612263565b80601f016020809104026020016040519081016040528092919081815260200182805461111590612263565b80156111625780601f1061113757610100808354040283529160200191611162565b820191906000526020600020905b81548152906001019060200180831161114557829003601f168201915b5050505050908060050160009054906101000a900473ffffffffffffffffffffffffffffffffffffffff16908060060154908060070160009054906101000a900460ff16905089565b606060008054906101000a900473ffffffffffffffffffffffffffffffffffffffff1673ffffffffffffffffffffffffffffffffffffffff163373ffffffffffffffffffffffffffffffffffffffff161461123b576040517f08c379a000000000000000000000000000000000000000000000000000000000815260040161123290611f5a565b60405180910390fd5b600780548060200260200160405190810160405280929190818152602001828054801561128757602002820191906000526020600020905b815481526020019060010190808311611273575b5050505050905090565b60015481565b60046020528060005260406000206000915090508060000154908060010180546112c090612263565b80601f01602080910402602001604051908101604052809291908181526020018280546112ec90612263565b80156113395780601f1061130e57610100808354040283529160200191611339565b820191906000526020600020905b81548152906001019060200180831161131c57829003601f168201915b50505050509080600201805461134e90612263565b80601f016020809104026020016040519081016040528092919081815260200182805461137a90612263565b80156113c75780601f1061139c576101008083540402835291602001916113c7565b820191906000526020600020905b8154815290600101906020018083116113aa57829003601f168201915b5050505050908060030160009054906101000a900473ffffffffffffffffffffffffffffffffffffffff16908060030160149054906101000a900460ff16905085565b6060600560003373ffffffffffffffffffffffffffffffffffffffff1673ffffffffffffffffffffffffffffffffffffffff16815260200190815260200160002060009054906101000a900460ff16611498576040517f08c379a000000000000000000000000000000000000000000000000000000000815260040161148f90611df0565b60405180910390fd5b600660003373ffffffffffffffffffffffffffffffffffffffff1673ffffffffffffffffffffffffffffffffffffffff16815260200190815260200160002080548060200260200160405190810160405280929190818152602001828054801561152157602002820191906000526020600020905b81548152602001906001019080831161150d575b5050505050905090565b82805461153790612263565b90600052602060002090601f01602090048101928261155957600085556115a0565b82601f1061157257805160ff19168380011785556115a0565b828001600101855582156115a0579182015b8281111561159f578251825591602001919060010190611584565b5b5090506115ad91906115b1565b5090565b5b808211156115ca5760008160009055506001016115b2565b5090565b6000604051905090565b600080fd5b600080fd5b600073ffffffffffffffffffffffffffffffffffffffff82169050919050565b600061160d826115e2565b9050919050565b61161d81611602565b811461162857600080fd5b50565b60008135905061163a81611614565b92915050565b600060208284031215611656576116556115d8565b5b60006116648482850161162b565b91505092915050565b60008115159050919050565b6116828161166d565b82525050565b600060208201905061169d6000830184611679565b92915050565b6000819050919050565b6116b6816116a3565b81146116c157600080fd5b50565b6000813590506116d3816116ad565b92915050565b600080fd5b600080fd5b6000601f19601f8301169050919050565b7f4e487b7100000000000000000000000000000000000000000000000000000000600052604160045260246000fd5b61172c826116e3565b810181811067ffffffffffffffff8211171561174b5761174a6116f4565b5b80604052505050565b600061175e6115ce565b905061176a8282611723565b919050565b600067ffffffffffffffff82111561178a576117896116f4565b5b611793826116e3565b9050602081019050919050565b82818337600083830152505050565b60006117c26117bd8461176f565b611754565b9050828152602081018484840111156117de576117dd6116de565b5b6117e98482856117a0565b509392505050565b600082601f830112611806576118056116d9565b5b81356118168482602086016117af565b91505092915050565b60008060408385031215611836576118356115d8565b5b6000611844858286016116c4565b925050602083013567ffffffffffffffff811115611865576118646115dd565b5b611871858286016117f1565b9150509250929050565b61188481611602565b82525050565b600060208201905061189f600083018461187b565b92915050565b600081519050919050565b600082825260208201905092915050565b6000819050602082019050919050565b6118da816116a3565b82525050565b60006118ec83836118d1565b60208301905092915050565b6000602082019050919050565b6000611910826118a5565b61191a81856118b0565b9350611925836118c1565b8060005b8381101561195657815161193d88826118e0565b9750611948836118f8565b925050600181019050611929565b5085935050505092915050565b6000602082019050818103600083015261197d8184611905565b905092915050565b60006020828403121561199b5761199a6115d8565b5b60006119a9848285016116c4565b91505092915050565b600060ff82169050919050565b6119c8816119b2565b81146119d357600080fd5b50565b6000813590506119e5816119bf565b92915050565b600381106119f857600080fd5b50565b600081359050611a0a816119eb565b92915050565b60008060008060008060c08789031215611a2d57611a2c6115d8565b5b600087013567ffffffffffffffff811115611a4b57611a4a6115dd565b5b611a5789828a016117f1565b9650506020611a6889828a016119d6565b9550506040611a7989828a016119fb565b945050606087013567ffffffffffffffff811115611a9a57611a996115dd565b5b611aa689828a016117f1565b935050608087013567ffffffffffffffff811115611ac757611ac66115dd565b5b611ad389828a016117f1565b92505060a0611ae489828a0161162b565b9150509295509295509295565b611afa816116a3565b82525050565b6000602082019050611b156000830184611af1565b92915050565b60008060408385031215611b3257611b316115d8565b5b600083013567ffffffffffffffff811115611b5057611b4f6115dd565b5b611b5c858286016117f1565b925050602083013567ffffffffffffffff811115611b7d57611b7c6115dd565b5b611b89858286016117f1565b9150509250929050565b600081519050919050565b600082825260208201905092915050565b60005b83811015611bcd578082015181840152602081019050611bb2565b83811115611bdc576000848401525b50505050565b6000611bed82611b93565b611bf78185611b9e565b9350611c07818560208601611baf565b611c10816116e3565b840191505092915050565b611c24816119b2565b82525050565b7f4e487b7100000000000000000000000000000000000000000000000000000000600052602160045260246000fd5b60038110611c6a57611c69611c2a565b5b50565b6000819050611c7b82611c59565b919050565b6000611c8b82611c6d565b9050919050565b611c9b81611c80565b82525050565b600061012082019050611cb7600083018c611af1565b8181036020830152611cc9818b611be2565b9050611cd8604083018a611c1b565b611ce56060830189611c92565b8181036080830152611cf78188611be2565b905081810360a0830152611d0b8187611be2565b9050611d1a60c083018661187b565b611d2760e0830185611af1565b611d35610100830184611679565b9a9950505050505050505050565b600060a082019050611d586000830188611af1565b8181036020830152611d6a8187611be2565b90508181036040830152611d7e8186611be2565b9050611d8d606083018561187b565b611d9a6080830184611679565b9695505050505050565b7f4f6e6c7920766572696669656420646f63746f72732063616e20616363657373600082015250565b6000611dda602083611b9e565b9150611de582611da4565b602082019050919050565b60006020820190508181036000830152611e0981611dcd565b9050919050565b7f4e6f742061737369676e656420746f20746869732070617469656e7400000000600082015250565b6000611e46601c83611b9e565b9150611e5182611e10565b602082019050919050565b60006020820190508181036000830152611e7581611e39565b9050919050565b7f50617469656e74207265636f7264206973206e6f742061637469766500000000600082015250565b6000611eb2601c83611b9e565b9150611ebd82611e7c565b602082019050919050565b60006020820190508181036000830152611ee181611ea5565b9050919050565b7f4f6e6c79206d616e616765722063616e20706572666f726d207468697320616360008201527f74696f6e00000000000000000000000000000000000000000000000000000000602082015250565b6000611f44602483611b9e565b9150611f4f82611ee8565b604082019050919050565b60006020820190508181036000830152611f7381611f37565b9050919050565b7f446f63746f72206e6f7420726567697374657265640000000000000000000000600082015250565b6000611fb0601583611b9e565b9150611fbb82611f7a565b602082019050919050565b60006020820190508181036000830152611fdf81611fa3565b9050919050565b7f50617469656e7420616c72656164792064656c65746564000000000000000000600082015250565b600061201c601783611b9e565b915061202782611fe6565b602082019050919050565b6000602082019050818103600083015261204b8161200f565b9050919050565b7f4e487b7100000000000000000000000000000000000000000000000000000000600052603260045260246000fd5b7f4e487b7100000000000000000000000000000000000000000000000000000000600052601160045260246000fd5b60006120bb826116a3565b91506120c6836116a3565b9250828210156120d9576120d8612081565b5b828203905092915050565b7f4e487b7100000000000000000000000000000000000000000000000000000000600052603160045260246000fd5b600061211e826116a3565b91507fffffffffffffffffffffffffffffffffffffffffffffffffffffffffffffffff82141561215157612150612081565b5b600182019050919050565b7f446f63746f72206d757374206265207665726966696564206669727374000000600082015250565b6000612192601d83611b9e565b915061219d8261215c565b602082019050919050565b600060208201905081810360008301526121c181612185565b9050919050565b7f446f63746f7220616c7265616479207265676973746572656400000000000000600082015250565b60006121fe601983611b9e565b9150612209826121c8565b602082019050919050565b6000602082019050818103600083015261222d816121f1565b9050919050565b7f4e487b7100000000000000000000000000000000000000000000000000000000600052602260045260246000fd5b6000600282049050600182168061227b57607f821691505b6020821081141561228f5761228e612234565b5b5091905056fea2646970667358221220b843ed7cd7c1d6b82a3e61f567a0ba2e5c16fca4212cfe04a9c98e8d6b4e5c0664736f6c63430008090033",
  "linkReferences": {},
  "deployedLinkReferences": {}
}